:100000000C9428010C9459010C9459010C94590139
:100010000C9459010C9459010C9459010C945901F8
:100020000C9459010C9459010C9459010C945901E8
:100030000C9459010C9459010C9459010C945901D8
:100040000C9459010C9459010C9459010C945901C8
:100050000C9459010C9459010C9459010C944903C6
:100060000C9459010C94BD030C9493030C94590106
:100070000C9459010C9459010C9459010C94590198
:100080000C9459010C9459010C9459010C94590188
:100090000C9459010C9459010C9459010C94590178
:1000A0000C9459010C9459010C9459010C94590168
:1000B0000C9459010C9459010C9459010C94590158
:1000C0000C9459010C9459010C9459010C94590148
:1000D0000C9459010C9459010C9459010C94590138
:1000E0000C9459010C941C030C940A030C941803EF
:1000F0000C945D020C94F5020C94A7010C94E3029D
:100100000C9401030C9434030C9426030C941403F4
:100110000C94FD020C94B6010C9404030C94DE02C2
:100120000C94CA010C94F9020C94D8010C9422038B
:100130000C9430050C947A010C9430030C942A032F
:100140000C9410020C940E0300000A0B02090C0D13
:100150000E0807030401000000000000000000007A
:10016000000000000000000000000000000000008F
:10017000000000001211100000000000000000004C
:10018000000000000000000000000000000000006F
:100190002200250028002B002E003100340002012F
:1001A0000000050108010B010000210024002700C8
:1001B0002A002D0030003300010100000401070176
:1001C0000A010505050507050808080802020202DC
:1001D0000A0A0808040404040101010101010101E3
:1001E0000303030303030303040707070C0C0C0CAE
:1001F0000C0C0C0C02020202060606060606060697
:100200000B0B0B0B0B0B0B0B010210202008081023
:100210002040102040800201020108040201010276
:10022000040810204080804020100804020180044F
:1002300002018040201008040201080402010102AA
:10024000040810204080010204081020408030057E
:1002500011241FBECFEFD1E2DEBFCDBF00E00CBF47
:1002600012E0A0E0B2E0EEECFAE000E00BBF02C06A
:1002700007900D92A632B107D9F722E0A6E2B2E0CC
:1002800001C01D92A33EB207E1F711E0C8E2D1E040
:1002900000E006C021970109802FFE010E945D0544
:1002A000C732D10780E00807A9F70E94F3030C9436
:1002B00065050C94000090E0FC01E85FFD4F24917F
:1002C0008E539E4FFC018491882399F090E0880F13
:1002D000991FFC01E855FE4FA591B491FC01E2572E
:1002E000FE4F859194918FB7F894EC91E22BEC93AB
:1002F0008FBF0895AF92BF92CF92DF92EF92FF929D
:100300000F931F93CF93DF936C017B018B01040F3D
:10031000151FEB015E01AE18BF08C017D10759F0D9
:100320006991D601ED91FC910190F081E02DC6011B
:100330001995892B79F7C501DF91CF911F910F9105
:10034000FF90EF90DF90CF90BF90AF900895FC01A9
:10035000538D448D252F30E0842F90E0821B930B2A
:10036000541710F0CF96089501970895FC01918DD0
:10037000828D981761F0A28DAE0FBF2FB11D5D96D3
:100380008C91928D9F5F9F73928F90E008958FEF75
:100390009FEF0895FC01918D828D981731F0828D29
:1003A000E80FF11D858D90E008958FEF9FEF089580
:1003B000FC01918D228D892F90E0805C9F4F821BE4
:1003C00091098F739927089586E492E00E94D801DD
:1003D00021E0892B09F420E0822F0895FC01A48DEF
:1003E000A80FB92FB11DA35ABF4F2C91848D90E057
:1003F00001968F739927848FA689B7892C93A0893A
:10040000B1898C91837080648C93938D848D9813C3
:1004100006C00288F389E02D80818F7D8083089556
:10042000EF92FF920F931F93CF93DF93EC0181E044
:10043000888F9B8D8C8D98131AC0E889F9898081EB
:1004400085FF15C09FB7F894EE89FF896083E8891E
:10045000F98980818370806480839FBF81E090E010
:10046000DF91CF911F910F91FF90EF900895F62E9D
:100470000B8D10E00F5F1F4F0F731127E02E8C8D37
:100480008E110CC00FB607FCFACFE889F98980817C
:1004900085FFF5CFCE010E94EE01F1CFEB8DEC0F81
:1004A000FD2FF11DE35AFF4FF0829FB7F8940B8F99
:1004B000EA89FB8980818062CFCFCF93DF93EC0103
:1004C000888D8823B9F0AA89BB89E889F9898C913C
:1004D00085FD03C0808186FD0DC00FB607FCF7CFF8
:1004E0008C9185FFF2CF808185FFEDCFCE010E94F8
:1004F000EE01E9CFDF91CF91089580E090E0892B64
:1005000029F00E94E40181110E94000080E090E047
:10051000892B49F080E090E0892B29F00E940000AF
:1005200081110E94000080E090E0892B49F080E07A
:1005300090E0892B29F00E94000081110E940000A8
:1005400080E090E0892B49F080E090E0892B29F051
:100550000E94000081110C9400000895282F30E0C3
:10056000F901E85BFE4F9491F901E85FFD4F44917A
:100570002E533E4FF9012491222309F435C09923CB
:1005800011F191509231F8F4E92FF0E08827E4530B
:10059000FD4F8F4F0C945D05FD020103DE02F50255
:1005A000F902E30204030A030E03140318031C03F5
:1005B00022032603E3022A033003340380918000E0
:1005C0008F7780938000E22FF0E0EE0FFF1FE2575D
:1005D000FE4FA591B4918FB7F894EC91611148C08A
:1005E00040954E234C938FBF0895809180008F7D5E
:1005F000E8CF80918000877FE4CF84B58F7784BD7A
:10060000E2CF84B58F7DFBCF8091B0008F77809350
:10061000B000D9CF8091B0008F7DF9CF809190004C
:100620008F7780939000CFCF809190008F7DF9CF0E
:1006300080919000877FF5CF8091A0008F77809385
:10064000A000C1CF8091A0008F7DF9CF8091A00044
:10065000877FF5CF809120018F7780932001B3CFE2
:10066000809120018F7DF9CF80912001877FF5CF88
:100670004E2BB8CF8EBD00000DB407FEFDCF8EB55A
:10068000089542E050E062E172E086E492E00C946A
:100690007A011F920F920FB60F9211242F933F935E
:1006A0008F939F93AF93BF938091420290914302A7
:1006B000A0914402B09145023091410223E0230F02
:1006C0002D3758F50196A11DB11D2093410280934D
:1006D000420290934302A0934402B093450280915A
:1006E0003D0290913E02A0913F02B09140020196DE
:1006F000A11DB11D80933D0290933E02A0933F0245
:10070000B0934002BF91AF919F918F913F912F91F4
:100710000F900FBE0F901F90189526E8230F02969A
:10072000A11DB11DD2CF1F920F920FB60F921124AF
:100730000BB60F922F933F934F935F936F937F93DB
:100740008F939F93AF93BF93EF93FF9386E492E0D1
:100750000E94EE01FF91EF91BF91AF919F918F9118
:100760007F916F915F914F913F912F910F900BBEB1
:100770000F900FBE0F901F9018951F920F920FB6FB
:100780000F9211240BB60F922F938F939F93EF9399
:10079000FF93E0915602F09157028081E0915C0254
:1007A000F0915D0282FD1DC0908180915F028F5F9C
:1007B0008F7320916002821741F0E0915F02F0E0B8
:1007C000EA5BFD4F958F80935F02FF91EF919F91C0
:1007D0008F912F910F900BBE0F900FBE0F901F9017
:1007E00018958081F2CF789484B5826084BD84B5F9
:1007F000816084BD85B5826085BD85B5816085BD1C
:1008000080916E00816080936E00109281008091D3
:10081000810082608093810080918100816080935B
:100820008100809180008160809380008091B10080
:1008300084608093B1008091B00081608093B000AB
:1008400080919100826080939100809191008160FD
:1008500080939100809190008160809390008091BE
:10086000A10082608093A1008091A10081608093AB
:10087000A1008091A00081608093A000809121015F
:100880008260809321018091210181608093210108
:100890008091200181608093200180917A008460A2
:1008A00080937A0080917A00826080937A008091B0
:1008B0007A00816080937A0080917A0080688093CA
:1008C0007A001092C100E0915602F091570282E046
:1008D0008083E0915202F09153021082E091540221
:1008E000F09155028FEC808310925E02E0915A02E3
:1008F000F0915B0286E08083E0915802F09159020A
:10090000808180618083E0915802F091590280815A
:1009100088608083E0915802F0915902808180685C
:100920008083E0915802F091590280818F7D80830D
:100930004FE050E065E172E086E492E00E947A01C7
:100940000E9441038CE20E945B0161E08CE20E9404
:10095000AE028DE20E945B0161E08DE20E94AE0278
:100960008EE20E945B0161E08EE20E94AE02CFB790
:10097000F89480912602811124C0E7EFF1E0849180
:10098000EDE3F2E09491E82FF0E0EE0FFF1FE85561
:10099000FE4FA591B491EC91E92321F461E085E348
:1009A0000E94AE0285E30E945B018CB580618CBD24
:1009B0008CB580648CBD84E30E945B0183E30E945C
:1009C0005B01809126028F5F80932602CFBF86E471
:1009D00092E00E94D8011816190684F586E492E088
:1009E0000E94B6018E3269F510923C0210923B02D1
:1009F0000E94410360E08CE20E94AE0280912702D7
:100A00000E943A0361E08CE20E94AE0260E08DE257
:100A10000E94AE02809128020E943A0361E08DE2BA
:100A20000E94AE0260E08EE20E94AE028091290236
:100A30000E943A0361E08EE20E94AE020E947D02B3
:100A4000C6CF20913B0230913C02F901E95DFD4F98
:100A500080832F5F3F4F30933C0220933B02EECFC9
:100A6000E6E4F2E01382128288EE93E0A0E0B0E0C8
:100A700084839583A683B78384E092E09183808307
:100A800085EC90E09587848784EC90E09787868753
:100A900080EC90E0918B808B81EC90E0938B828B4B
:100AA00082EC90E0958B848B86EC90E0978B868B24
:100AB000118E128E138E148E0895EE0FFF1F881F55
:0E0AC0008BBF0790F691E02D1994F894FFCFAC
:100ACE000000000010027A01A7015D02D801B601F4
:100ADE00CA010D0A005374617274696E67206D61EC
:060AEE0073746572000044
:00000001FF
