:100000000C9417010C942B010C942B010C942B01D4
:100010000C942B010C942B010C942B010C942B01B0
:100020000C942B010C942B010C942B010C942B01A0
:100030000C942B010C942B010C942B010C942B0190
:100040000C942B010C942B010C942B010C942B0180
:100050000C942B010C942B010C942B010C944D024D
:100060000C9497020C942B010C942B010C942B01F3
:100070000C942B010C942B010C942B010C942B0150
:100080000C942B010C942B010C942B010C942B0140
:100090000C942B010C942B010C942B010C942B0130
:1000A0000C942B010C942B010C942B010C942B0120
:1000B0000C942B010C942B010C942B010C942B0110
:1000C0000C942B010C942B010C942B010C942B0100
:1000D0000C942B010C942B010C942B010C942B01F0
:1000E0000C942B010C9497010C94B3010C9478019F
:1000F0000C945D010C949B010C9483010C94A5015C
:100100000C948D010C9489010C9474010C94A10140
:100110000C947C010C9480010C94AF010C9462014E
:100120000C94A9010C9493010000210024002700E5
:100130002A002D00300033000101000004010701F6
:100140000A0100002200250028002B002E003100AB
:10015000340002010000050108010B010505050539
:10016000070508080808020202020A0A080804042F
:10017000040401010101010101010303030303035D
:100180000303040707070C0C0C0C0C0C0C0C0202EC
:10019000020206060606060606060B0B0B0B0B0BE9
:1001A0000B0B010210202008081020401020408076
:1001B000020102010804020101020408102040802B
:1001C00080402010080402018004020180402010B9
:1001D0000804020108040201010204081020408002
:1001E000010204081020408000000A0B02090C0DD7
:1001F0000E080703040100000000000000000000DA
:1002000000000000000000000000000000000000EE
:1002100000000000121110000000000000000000AB
:100220000000000000000000000000000000112499
:100230001FBECFEFD1E2DEBFCDBF00E00CBF22E09A
:10024000A0E0B2E001C01D92AF30B207E1F70E941A
:10025000A9020C9419080C940000282F30E0F90131
:10026000E851FE4F9491F901EE55FE4F4491245A06
:100270003E4FF9012491222309F435C0992311F14D
:1002800091509231F8F4E92FF0E08827E55BFE4FBA
:100290008F4F0C9411087C0180015D01740178017D
:1002A0006201830189018D01930197019B01A101E5
:1002B000A5016201A901AF01B301809180008F7790
:1002C00080938000E22FF0E0EE0FFF1FEE5BFE4F09
:1002D000A591B4918FB7F894EC91611148C0409505
:1002E0004E234C938FBF0895809180008F7DE8CF7F
:1002F00080918000877FE4CF84B58F7784BDE2CF83
:1003000084B58F7DFBCF8091B0008F778093B00054
:10031000D9CF8091B0008F7DF9CF809190008F77F9
:1003200080939000CFCF809190008F7DF9CF809106
:100330009000877FF5CF8091A0008F778093A000F9
:10034000C1CF8091A0008F7DF9CF8091A000877FE1
:10035000F5CF809120018F7780932001B3CF8091DA
:1003600020018F7DF9CF80912001877FF5CF4E2B23
:10037000B8CFCF93DF9390E0FC01EE55FE4F249170
:10038000845A9E4FFC0184918823C9F090E0880F25
:10039000991FFC01E85DFE4FA591B491FC01EE5B55
:1003A000FE4FC591D49161110DC09FB7F8948C9107
:1003B000209582238C938881282328839FBFDF91F7
:1003C000CF910895623051F49FB7F8943C91822FF9
:1003D000809583238C93E8812E2BEFCF8FB7F894F1
:1003E000EC912E2B2C938FBFEACF3FB7F8948091DE
:1003F000050290910602A0910702B091080226B56D
:10040000A89B05C02F3F19F00196A11DB11D3FBF4C
:10041000BA2FA92F982F8827BC01CD01620F711D1B
:10042000811D911D42E0660F771F881F991F4A9515
:10043000D1F708958F929F92AF92BF92CF92DF92A1
:10044000EF92FF926B017C010E94F5014B015C0170
:10045000C114D104E104F104B9F00E94F501681956
:1004600079098A099B09683E73408105910580F3EB
:1004700021E0C21AD108E108F10888EE880E83E075
:10048000981EA11CB11CE4CFFF90EF90DF90CF909D
:10049000BF90AF909F908F9008951F920F920FB6CC
:1004A0000F9211242F933F938F939F93AF93BF93FA
:1004B0008091010290910202A0910302B091040286
:1004C0003091000223E0230F2D3758F50196A11D2E
:1004D000B11D209300028093010290930202A09329
:1004E0000302B09304028091050290910602A0914C
:1004F0000702B09108020196A11DB11D809305026B
:1005000090930602A0930702B0930802BF91AF91A7
:100510009F918F913F912F910F900FBE0F901F9041
:10052000189526E8230F0296A11DB11DD2CF1F9268
:100530000F920FB60F9211248F938EB580930902FC
:1005400081E080930E028F910F900FBE0F901F904D
:100550001895789484B5826084BD84B5816084BD2B
:1005600085B5826085BD85B5816085BD80916E0051
:10057000816080936E001092810080918100826082
:1005800080938100809181008160809381008091BF
:1005900080008160809380008091B10084608093AE
:1005A000B1008091B00081608093B0008091910093
:1005B000826080939100809191008160809391008E
:1005C000809190008160809390008091A100826072
:1005D0008093A1008091A10081608093A10080910F
:1005E000A00081608093A0008091210182608093AF
:1005F000210180912101816080932101809120015E
:1006000081608093200180917A00846080937A00D9
:1006100080917A00826080937A0080917A00816074
:1006200080937A0080917A00806880937A0010929B
:10063000C10061E082E00E94B90161E083E00E94B4
:10064000B90161E084E00E94B90161E085E00E94A7
:10065000B90160E083E30E94B90161E082E30E9496
:10066000B90160E084E30E94B90162E085E30E9481
:10067000B9018CB580648CBD8CB580688CBDC0E040
:10068000D0E080910E02882309F4C7C1809109024D
:100690008F7D813419F561E082E00E942D0161E0D7
:1006A00085E00E942D016CE271E080E090E00E9404
:1006B0001A0261E083E00E942D0161E084E00E9463
:1006C0002D0164E670E080E090E00E941A0260E094
:1006D00083E00E942D0160E084E03BC0823409F099
:1006E0003FC061E082E00E942D0161E083E00E9452
:1006F0002D0161E084E00E942D0161E085E00E940F
:100700002D0164E670E080E090E00E941A0260E053
:1007100083E00E942D0160E084E00E942D0168ECDE
:1007200070E080E090E00E941A0261E083E00E94A5
:100730002D0161E084E00E942D0164E670E080E01C
:1007400090E00E941A0260E083E00E942D0160E0C8
:1007500085E00E942D0168EC70E080E090E055C0DB
:10076000833479F561E082E00E942D0161E083E04D
:100770000E942D0161E084E00E942D0161E085E08E
:100780000E942D0164E670E080E090E00E941A0271
:1007900060E083E00E942D0160E084E00E942D0172
:1007A00060E085E00E942D0164EF71E080E090E060
:1007B0000E941A0261E083E00E942D0161E084E062
:1007C00017C3843489F561E082E00E942D0161E065
:1007D00083E00E942D0161E084E00E942D0161E030
:1007E00085E00E942D0164E670E080E090E00E94C8
:1007F0001A0260E083E00E942D0160E084E00E9424
:100800002D0164EF71E080E090E00E941A0261E047
:1008100083E00E942D0161E084E00E942D0164E6E6
:1008200070E080E090E0D9C1853409F055C061E006
:1008300082E00E942D0161E083E00E942D0161E0D1
:1008400084E00E942D0161E085E00E942D0164E6B4
:1008500070E080E090E00E941A0260E083E00E9475
:100860002D0160E084E00E942D0160E085E00E949F
:100870002D0168EC70E080E090E00E941A0261E0D7
:1008800082E00E942D0161E083E00E942D0161E081
:1008900084E00E942D0161E085E00E942D0164E664
:1008A00070E080E090E00E941A0260E083E00E9425
:1008B0002D0160E084E00E942D0160E085E00E944F
:1008C0002D0168EC70E080E090E00E941A0261E087
:1008D00082E00E942D016ECF863489F561E082E0CE
:1008E0000E942D0160E971E080E090E00E941A0210
:1008F00061E082E00E942D0161E083E00E942D0111
:1009000061E084E00E942D0161E085E00E942D01FC
:1009100064E670E080E090E00E941A0260E083E00C
:100920000E942D0160E084E00E942D0160E085E0DE
:100930000E942D0164E670E080E090E0C6CF87342D
:1009400079F561E082E00E942D0161E083E00E9480
:100950002D0161E084E00E942D0161E085E00E94AC
:100960002D0164E670E080E090E00E941A0260E0F1
:1009700083E00E942D0160E084E00E942D0168EC7C
:1009800070E080E090E00E941A0261E084E00E9442
:100990002D0164E670E080E090E00E941A0289CFA9
:1009A000883449F561E082E00E942D0161E085E034
:1009B0000E942D016CE271E080E090E00E941A023A
:1009C00061E083E00E942D0161E084E00E942D013E
:1009D00064E670E080E090E00E941A0260E083E04C
:1009E0000E942D0160E084E00E942D016CE271E024
:1009F00080E090E096C08934B1F461E082E00E942A
:100A00002D016CEB72E080E090E00E941A0260E041
:100A100082E00E942D0110920E02209709F431CE3F
:100A20000E9400002ECE8A3469F561E082E00E94C7
:100A30002D0161E083E00E942D0161E084E00E94CD
:100A40002D0161E085E00E942D0164E670E080E008
:100A500090E00E941A0260E083E00E942D0160E0B5
:100A600084E00E942D0164E670E080E090E00E9446
:100A70001A0260E082E00E942D0160E971E080E0EE
:100A800090E0C3CE8B3409F055C061E082E00E9453
:100A90002D0161E085E00E942D0164E670E080E0B8
:100AA00090E00E941A0261E084E00E942D0160E063
:100AB00085E00E942D0168EC70E080E090E00E94EB
:100AC0001A0261E083E00E942D0160E084E00E9450
:100AD0002D0164E670E080E090E00E941A0260E080
:100AE00083E00E942D0161E084E00E942D0160E01E
:100AF00085E00E942D0168EC70E080E090E00E94AB
:100B00001A0260E084E00E942D0161E082E00E9410
:100B10002D0161E085E00E942D0164E670E080E037
:100B200090E00E941A0260E082E00E942D0160E0E5
:100B300085E06FCF8C3439F561E082E00E942D01B1
:100B400061E083E00E942D0161E084E00E942D01BC
:100B500061E085E00E942D0164E670E080E090E0B5
:100B60000E941A0260E083E00E942D0160E084E0B0
:100B70000E942D0160E085E00E942D0168E572E091
:100B800080E090E042CF8D34A9F561E082E00E94E0
:100B90002D0161E085E00E942D016CE271E080E0B2
:100BA00090E00E941A0261E083E00E942D0161E062
:100BB00084E00E942D0168EC70E080E090E00E94EB
:100BC0001A0260E083E00E942D0160E084E00E9450
:100BD0002D0168EC70E080E090E00E941A0260E075
:100BE00082E00E942D0160E083E00E942D0160E020
:100BF00084E09BCF8E3479F561E082E00E942D0184
:100C000061E085E00E942D0164E670E080E090E004
:100C10000E941A0261E084E00E942D0168EC70E0FD
:100C200080E090E00E941A0261E083E00E942D01C2
:100C300064E670E080E090E00E941A0260E084E0E8
:100C40000E942D0168EC70E080E090E00E941A02A2
:100C500060E083E060CF8F3409F4B5CD803579F45E
:100C600061E082E00E942D016CE271E080E090E0A2
:100C70000E941A0261E085E00E942D011ACD8135A3
:100C800069F461E085E00E942D016CE271E080E092
:100C900090E00E941A0261E082E0EECF823509F016
:100CA0004DC061E082E00E942D0161E085E00E947C
:100CB0002D0164E670E080E090E00E941A0260E09E
:100CC00085E00E942D0161E084E00E942D0168EC26
:100CD00070E080E090E00E941A0260E084E00E94F0
:100CE0002D0161E083E00E942D0164E670E080E068
:100CF00090E00E941A0261E085E00E942D0161E00F
:100D000084E00E942D0164E670E080E090E00E94A3
:100D10001A0260E084E00E942D0160E083E00E94FE
:100D20002D0164E670E080E090E00E941A0261E02C
:100D300084E00E942D0161E083E06FCD833509F0EE
:100D400045C061E082E00E942D0161E083E00E94E5
:100D50002D0161E084E00E942D0161E085E00E94A8
:100D60002D0164E670E080E090E00E941A0260E0ED
:100D700082E00E942D0160E083E00E942D0160E08E
:100D800084E00E942D0168EC70E080E090E00E9419
:100D90001A0261E082E00E942D0161E083E00E947E
:100DA0002D0161E084E00E942D0164E670E080E0A6
:100DB00090E00E941A0260E085E00E942D0160E050
:100DC00083E00E942D0160E084E079CD8435A9F4B0
:100DD00061E083E00E942D0161E084E00E942D012A
:100DE00068E572E080E090E00E941A0261E082E033
:100DF0000E942D0161E085E010CD853519F561E097
:100E000082E00E942D0161E083E00E942D0161E0FB
:100E100084E00E942D0161E085E00E942D0164E6DE
:100E200070E080E090E00E941A0260E083E00E949F
:100E30002D0160E084E00E942D0168E572E080E011
:100E400090E06FCE863519F561E083E00E942D01B8
:100E500061E084E00E942D0168EC70E080E090E0A9
:100E60000E941A0261E082E00E942D0161E085E0AB
:100E70000E942D0160E083E00E942D0160E084E08B
:100E80000E942D0160E971E080E090E04ACE873554
:100E9000D9F461E082E00E942D0161E085E00E94CA
:100EA0002D0168EC70E080E090E00E941A0261E0A1
:100EB00083E00E942D0161E084E00E942D0168EC36
:100EC00070E080E090E088CD8835C9F561E082E08F
:100ED0000E942D0161E085E00E942D0168EC70E028
:100EE00080E090E00E941A0260E082E00E942D0102
:100EF00060E085E00E942D0161E083E00E942D0109
:100F000061E084E00E942D016CE271E080E090E0FD
:100F10000E941A0260E083E00E942D0160E084E0FC
:100F20000E942D0161E082E00E942D0161E085E0D8
:100F30000E942D0168EC70E080E090E0F2CD8935F0
:100F400019F561E084E00E942D0161E083E00E94D8
:100F50002D016CE271E080E090E00E941A0261E0F5
:100F600082E00E942D0161E085E00E942D0164E68F
:100F700070E080E090E00E941A0260E083E00E944E
:100F80002D0160E084E0D4CF8A3509F044CD61E0E2
:100F900082E00E942D0161E083E00E942D0161E06A
:100FA00084E00E942D0161E085E00E942D0164E64D
:100FB00070E080E090E00E941A0260E083E00E940E
:100FC0002D0160E084E00E942D0160E085E00E9438
:100FD0002D0168EC70E080E090E00E941A0260E071
:100FE00082E00E942D0161E083E00E942D0164E611
:100FF00070E080E090E00E941A0260E083E00E94CE
:101000002D0161E084E00E942D0164E670E080E043
:1010100090E00E941A0260E084E00E942D0161E0ED
:1010200086CCEE0FFF1F881F8BBF0790F691E02D37
:061030001994F894FFCFB3
:00000001FF
